:1000000005C1000028C1000026C1000024C1000075
:1000100022C1000020C100001EC100001CC1000060
:100020001AC1000018C100004EC30000B7C3000091
:1000300012C1000010C100000EC100000CC1000080
:100040000AC1000008C1000006C1000004C1000090
:1000500002C1000000C10000FEC0000072C200002A
:10006000FAC00000F8C00000F6C00000F4C00000B4
:10007000F2C00000F0C00000EEC00000ECC00000C4
:10008000EAC00000E8C00000E6C00000E4C00000D4
:10009000E2C00000E0C00000DEC00000DCC00000E4
:1000A000DAC00000D8C00000D6C00000012302233F
:1000B0000423082380230129022904290829402632
:1000C000802640298029102320234023802F402F81
:1000D000202F102F022F012F10292029402C7DFDC9
:1000E0007DFB7DF77DEF7DDF7E7F7EBF7EDF7EEF58
:1000F0007EFD7EFE7DFE0001040506070D0C0B0A49
:1001000009080A0B0C0D0706050401000800010090
:10011000004301120002000055017300220100C8D3
:10012000012100210100B1010900030000E90104DF
:1001300001030904ED011A01C13601C0260181360F
:100140000180361201000200000040C01687040042
:10015000010001000109027300020100C03209041C
:1001600000000201030000072401000141000624F1
:100170000201010006240202020009240301030116
:10018000020100092403020401010100090504021F
:10019000400000000005250101010905830240001F
:1001A000000000052501010309040100020300000D
:1001B00000092111010001222100070581034000EF
:1001C000010705020320000206C9FF0904A15C75AE
:1001D00008150026FF0095400975810295200976D3
:1001E000910295040976B102C0040309041A034878
:1001F0000061007000700079002000420065006519
:1002000000700065007200000000A40611241FBEEB
:10021000CFEFDAE0DEBFCDBF11E0A0E0B1E0EAEF62
:10022000FDE002C005900D92A631B107D9F711E0AB
:10023000A6E1B1E001C01D92A537B107E1F712E0D8
:10024000CCE0D2E003C02297FE01D1D5CA30D1075D
:10025000D1F701D4D0C5D4CE80910601E82FF0E0CB
:1002600098D063E070E080E090E0ABD1809106012F
:10027000E82FF0E094C080910401E82FF0E0809135
:1002800016016CE0A6D5092E81C08091170190E07F
:1002900020E030E0FC0183D0FC017BD02F5F3F4F9A
:1002A00028303105B9F7089580911601873139F466
:1002B0001092160180910A01E82FF0E06AD0809137
:1002C00016018B3029F480910A01E82FF0E067C015
:1002D00008951F93182F80910001181749F4E4DF47
:1002E000D4DFC9DFB9DF809116018F5F80931601DB
:1002F00080910101181721F080910201181761F413
:100300001092160180910A01E82FF0E042D080910E
:100310000801E82FF0E03DD080910301181751F457
:1003200080910A01E82FF0E03AD080910801E82F8F
:10033000F0E035D01F91089584E291E060E08FC332
:1003400080910A0112D0809117010FD08091040191
:100350000CD08091060109D0239A5E9A89E691E03B
:1003600090937401809373010895893170F4ECEADD
:10037000F0E0880FE80FF11D9591E491F0E02FB7C0
:10038000F8948181892B81832FBF0895002039F053
:1003900000C0E93150F4EE0FEA52FE4F0994E93102
:1003A00020F4EE0FE85FFD4F09940895289A089510
:1003B000299A08952A9A08952B9A08952F9A6AC027
:1003C000589A58C0599A08955A9A08955B9A089570
:1003D000469A66C0479A6AC05E9A08955F9A6CC052
:1003E0002C9A08952D9A4AC02E9A4EC08F9A08953D
:1003F0008E9A08958D9A08958C9A0895899A0895F1
:10040000889A08955C9A08955D9A0895769A089559
:1004100028980895299808952A9808952B98089562
:100420002F9838C0589826C0599808955A9808951A
:100430005B980895469834C0479838C05E980895F0
:100440005F983AC02C9808952D9818C02E981CC01B
:100450008F9808958E9808958D9808958C98089592
:1004600089980895889808955C9808955D980895EE
:1004700076980895E4B5EF7DE4BD0895E09180009D
:10048000EF77E09380000895E0918000EF7DE093A6
:1004900080000895E0918000E77FE0938000089558
:1004A000E0919000EF77E09390000895E091C00014
:1004B000EF77E093C0000895E091C200E77FE093FA
:1004C000C20008951DBA109268001CBC10BE1FBA6D
:1004D00010927A0010926E0010926F0010927100CC
:1004E000109272001092C900ECEBF0E0108214B888
:1004F00017B81AB81DB810BA108215B818B81BB8BA
:100500001EB811BA0895F89480E29EE40197F1F7BD
:1005100081E08093E00080E28093D8001092C900CF
:1005200080E69AEE0197F1F7CDDF0C94003F089535
:10053000F894C8DF80E69AEE0197F1F70C9400007A
:1005400008958F938FB78F93809121018D5F8D37A1
:10055000D0F48093210180911D018F5F80931D0154
:10056000D8F080911E018F4F80931E01A8F08091DA
:100570001F018F4F80931F0178F0809120018F4FD2
:100580008093200109C08A578093210180911D0129
:100590008E5F80931D0128F7809119018C5F8093F5
:1005A000190158F080911A018F4F80931A0128F099
:1005B00080911B018F4F80931B018F918FBF8F9173
:1005C00018959B01AC0114D0FB010CC011D06E1B1F
:1005D0007F0B685E7340D0F3215030404040504064
:1005E000E851FC4F211531054105510579F7089572
:1005F0000FB6F89466B515B27091190180911A0181
:1006000090911B010FBE10FE05C06F3F19F07C5F7B
:100610008F4F9F4F11240024660F001C660F001C93
:1006200070290895F894E1E6F0E020E82083108234
:1006300083E084BD85BDEEE6F0E08081816080834B
:1006400091E09093800082E08093810090939000ED
:10065000809391008093C00084E08093C1009093C8
:10066000C2009093C3001092C40086E880937A0081
:1006700020937B0010927E0010927D0002D078942F
:1006800008958091D80087FF02C085FF1BC081E0DC
:100690008093D70080EA8093D80082E189BD09B4B5
:1006A00000FEFDCF80E98093D8001092E000109208
:1006B000750110927601109277011092E1008CE0A2
:1006C0008093E20008951F920F920FB60F921124AB
:1006D0008F939F938091E1001092E100982F83FF08
:1006E0000FC01092E90081E08093EB001092EC00C3
:1006F00082E38093ED0088E08093F0001092750112
:1007000092FF24C080917501882301F180917701C7
:10071000882391F0815080937701882369F481E0E8
:100720008093E90002C01092F1008091E80085FDFD
:10073000FACF8AE38093E80083E08093E900809118
:10074000F200882319F08AE38093E80090FF0CC040
:1007500080E18093E2001092750181E08093760140
:1007600080EA8093D80019BC80917601882379F0C3
:1007700094FF0DC082E189BD09B400FEFDCF80E980
:100780008093D8008DE08093E200109276019F91D3
:100790008F910F900FBE0F901F9018951F920F9280
:1007A0000FB60F9211242F933F934F935F936F9344
:1007B0007F938F939F93AF93BF93EF93FF93109289
:1007C000E9008091E80083FF32C13091F1009091FF
:1007D000F1004091F1005091F1006091F1007091B1
:1007E000F100A091F100B091F10082EF8093E80058
:1007F000963009F044C0EDE0F1E020E0859195915C
:100800008417950711F0359617C085919591861735
:10081000970711F0339610C0259135914491CD0181
:10082000AF3FB10519F010F08FEF90E0841708F496
:10083000482FF9015EEF04C02F5F2630F9F6F7C0AC
:100840008091E800282F30E0C90185709070892BD5
:10085000B9F322FDEFC0242F413408F020E4922F99
:1008600004C085918093F10091509923D1F7421BE8
:100870005093E800442321F7203411F3DBC0953076
:1008800061F48EEF8093E8008091E80080FFFCCF58
:10089000842F80688093E300CDC09930F9F433232E
:1008A00009F06FC040937501109277018EEF80932D
:1008B000E800E7E3F1E091E09093E900859180930F
:1008C000EB00882331F085918093EC008591809333
:1008D000ED009F5F953081F78EE14EC0983061F456
:1008E000303809F04EC08091E80080FFFCCF809145
:1008F00075018093F1001BC09923E9F48091E80011
:1009000080FFFCCF323811F080E00DC06093E90029
:100910008091EB0090E025E0969587952A95E1F788
:1009200081701092E9008093F1001092F1008EEF37
:100930008093E8007FC0913011F0933011F5323090
:1009400001F541155105E9F4262F2F77822F8150AB
:100950008430B8F48EEF8093E8002093E900933060
:1009600009F465C089E18093EB0081E090E002C06A
:10097000880F991F2A95E2F78093EA001092EA0007
:1009800059C06130710509F052C0913019F5313A02
:1009900009F04DC04A2F5EEF8091E800282F30E02B
:1009A000C90185709070892BB9F322FD43C0942F43
:1009B000413408F090E4892F03C01092F100815077
:1009C0008823D9F7491B5093E800442329F7903432
:1009D00019F330C0993059F5313249F54050534040
:1009E00031F5149721F58091E80082FFFCCF9091BA
:1009F000F1002091F1003091F1004091F1008BEF76
:100A00008093E8008EEF8093E800993A39F425341A
:100A100071F4323C61F44B3651F475DD9B3839F496
:100A2000253C29F43D3119F4403709F481DD81E298
:100A30008093EB00FF91EF91BF91AF919F918F91C8
:100A40007F916F915F914F913F912F910F900FBECA
:100A50000F901F901895E6DD73DC6EDCFECFFF92E1
:100A60000F931F93CF93DF93EC019FB7F89480917E
:100A70007501882311F49FBF31C184E08093E900A0
:100A80002BE68091E80085FD07C082FF03C020931C
:100A9000E800F7CF9FBF21C12091F1003091F10014
:100AA0000091F100F090F1008091E80085FD03C015
:100AB0008BE68093E8009FBF922F9F70892F88500C
:100AC000883008F0B0C0132F1F701F5F662319F025
:100AD000611709F002C1832F807F983059F4803864
:100AE00009F0FBC01982CF5BDF4FE881F981C15467
:100AF000D0402BC09930E1F4803909F0EEC0FF20DE
:100B000049F081E08983CD5BDF4FE881F981C354EF
:100B1000D0401BC01982CF5BDF4FE881F981C154FF
:100B2000D040309709F47BC0812F602F40E013C084
:100B30009A3099F4803A09F0D0C082E08983CB5B87
:100B4000DF4FE881F981C554D040309709F467C080
:100B5000812F602F4F2D099562C09B3061F4803B3F
:100B600009F0BBC083E08983C95BDF4FE881F9816D
:100B7000C754D040EACF9C3061F4803C09F0ADC04E
:100B800084E08983C75BDF4FE881F981C954D04095
:100B90000DC09D3089F4803D09F09FC085E08983B8
:100BA000C55BDF4FE881F981CB54D0403097B9F174
:100BB000812F602F099533C09E30F9F4803E09F0F3
:100BC0008CC086E08983C35BDF4FE881F981CD5417
:100BD000D040309721F16F2D70E06F77707076956F
:100BE000762F662777956795802F90E08F779070A6
:100BF000682B792B812F099512C09F3009F06DC0A9
:100C0000803F09F06AC088E08983C15BDF4FE881DB
:100C1000F981CF54D040309711F0832F0995188374
:100C20000A83FB8258C0943021F5DE01A05CBF4FDF
:100C30008C918C3330F4FE01E80FF11D34838F5F0B
:100C40008C93DE01A05CBF4F8C918C3330F4FE019D
:100C5000E80FF11D04838F5F8C93FE01E05CFF4F72
:100C600080818C33D0F5C80FD11DFC828F5F8083CB
:100C700034C0892F8550833080F5DE01A05CBF4FE2
:100C80008C918C3330F4FE01E80FF11D34838F5FBB
:100C90008C93963060F0DE01A05CBF4F8C918C335A
:100CA00030F4FE01E80FF11D04838F5F8C939730C1
:100CB00061F4DE01A05CBF4F8C918C3330F4FE01F7
:100CC000E80FF11DF4828F5F8C93FE01E05CFF4F13
:100CD00080818A83108281E001C080E0DF91CF9122
:100CE0001F910F91FF90089580917501882359F10C
:100CF0002FB7F89481E08093E9009091E400975E2B
:100D000031E08091E80085FD0EC02FBF8091E400A6
:100D10008917C9F0809175018823A9F02FB7F8943D
:100D20003093E900EECF6093F1008091E80085FDFB
:100D300006C08AE38093E8001092770103C084E044
:100D4000809377012FBF089580E191E09093230174
:100D500080932201E4E2F1E081E5DF011D928A95B2
:100D6000E9F708950F931F93CF93DF938C01EB0165
:100D700009C02196D801ED91FC910190F081E02D00
:100D8000C801099568816623A1F7DF91CF911F9172
:100D90000F910895EF92FF920F931F93CF93DF93DC
:100DA0008C017B01EA010CC0D7016D917D01D80156
:100DB000ED91FC910190F081E02DC80109952197FA
:100DC000209791F7DF91CF911F910F91FF90EF90B6
:100DD0000895991B79E004C0991F961708F0961B97
:100DE000881F7A95C9F780950895EE0FFF1F05902B
:0A0DF000F491E02D0994F894FFCF70
:100DFA00F8FAFBFC0100020003000B0000000000EF
:060E0A007406B206CA06E0
:00000001FF
